:020000040800F2
:1000000000500020A5B50008710F0008770F000808
:100010007D0F0008830F0008890F00080000000012
:100020000000000000000000000000008F0F00082A
:100030009B0F000800000000A70F0008B30F000886
:10004000EDB50008EDB50008EDB50008EDB5000808
:10005000EDB50008EDB50008EDB50008EDB50008F8
:10006000EDB50008EDB50008EDB50008EDB50008E8
:10007000C10F0008EDB50008EDB50008D50F000868
:10008000EDB50008EDB50008EDB50008EDB50008C8
:10009000E90F0008EDB50008EDB50008EDB5000862
:1000A000EDB50008EDB50008EDB50008EDB50008A8
:1000B000EDB50008EDB50008FD0F0008EDB500082E
:1000C000EDB50008EDB50008EDB500081510000805
:1000D00029100008EDB50008EDB50008EDB50008E1
:1000E000EDB50008EDB50008EDB500080000000012
:1000F0000000000000000000000000000000000000
:0C01000000000000000000005FF808F1A3
:1001100010B5054C237833B9044B13B10448AFF341
:1001200000800123237010BD400300200000000068
:100130006CE0000808B5034B1BB103490348AFF35B
:10014000008008BD00000000440300206CE00008AF
:10015000034613F8012B002AFBD1181A0138704707
:1001600081F0004102E000BF83F0004330B54FEA68
:1001700041044FEA430594EA050F08BF90EA020FD5
:100180001FBF54EA000C55EA020C7FEA645C7FEA68
:10019000655C00F0E2804FEA5454D4EB5555B8BF8B
:1001A0006D420CDD2C4480EA020281EA030382EAFC
:1001B000000083EA010180EA020281EA0303362D8E
:1001C00088BF30BD11F0004F4FEA01314FF4801C61
:1001D0004CEA113102D0404261EB410113F0004F73
:1001E0004FEA03334CEA133302D0524263EB43032A
:1001F00094EA050F00F0A780A4F10104D5F1200EC8
:100200000DDB02FA0EFC22FA05F2801841F1000122
:1002100003FA0EF2801843FA05F359410EE0A5F1F6
:1002200020050EF1200E012A03FA0EFC28BF4CF027
:10023000020C43FA05F3C01851EBE37101F00045DD
:1002400007D54FF0000EDCF1000C7EEB00006EEBEA
:100250000101B1F5801F1BD3B1F5001F0CD3490874
:100260005FEA30004FEA3C0C04F101044FEA4452CB
:1002700012F5800F80F09A80BCF1004F08BF5FEA52
:10028000500C50F1000041EB045141EA050130BD32
:100290005FEA4C0C404141EB0101013C28BFB1F544
:1002A000801FE9D291F0000F04BF01460020B1FA8F
:1002B00081F308BF2033A3F10B03B3F120020CDA62
:1002C0000C3208DD02F1140CC2F10C0201FA0CF040
:1002D00021FA02F10CE002F11402D8BFC2F1200CA5
:1002E00001FA02F120FA0CFCDCBF41EA0C0190405B
:1002F000E41AA2BF01EB0451294330BD6FEA0404A4
:100300001F3C1CDA0C340EDC04F11404C4F120028E
:1003100020FA04F001FA02F340EA030021FA04F3A0
:1003200045EA030130BDC4F10C04C4F1200220FAF7
:1003300002F001FA04F340EA0300294630BD21FA35
:1003400004F0294630BD94F0000F83F4801306BFFB
:1003500081F480110134013D4EE77FEA645C18BFEF
:100360007FEA655C29D094EA050F08BF90EA020F86
:1003700005D054EA000C04BF1946104630BD91EA7E
:10038000030F1EBF0021002030BD5FEA545C05D181
:100390004000494128BF41F0004130BD14F58004C0
:1003A0003CBF01F5801130BD01F0004545F0FE4134
:1003B00041F470014FF0000030BD7FEA645C1ABF69
:1003C000194610467FEA655C1CBF0B46024650EAA0
:1003D000013406BF52EA033591EA030F41F40021CC
:1003E00030BD00BF90F0000F04BF0021704730B552
:1003F0004FF4806404F132044FF000054FF0000127
:1004000050E700BF90F0000F04BF0021704730B5E7
:100410004FF4806404F1320410F0004548BF4042BC
:100420004FF000013EE700BF42004FEAE2014FEA11
:1004300031014FEA02701FBF12F07F4393F07F4FEC
:1004400081F06051704732F07F4208BF704793F0EF
:100450007F4F04BF41F40021704730B54FF4607402
:1004600001F0004521F000411CE700BF50EA010205
:1004700008BF704730B54FF000050AE050EA0102AE
:1004800008BF704730B511F0004502D5404261EB1E
:1004900041014FF4806404F132045FEA915C3FF45F
:1004A000D8AE4FF003025FEADC0C18BF03325FEAFC
:1004B000DC0C18BF033202EBDC02C2F1200300FAAD
:1004C00003FC20FA02F001FA03FE40EA0E0021FAD2
:1004D00002F11444BDE600BF70B54FF0FF0C4CF4C0
:1004E000E06C1CEA11541DBF1CEA135594EA0C0F72
:1004F00095EA0C0F00F0DEF82C4481EA030621EAAD
:100500004C5123EA4C5350EA013518BF52EA0335E7
:1005100041F4801143F4801338D0A0FB02CE4FF099
:100520000005E1FB02E506F00042E0FB03E54FF0C9
:100530000006E1FB03569CF0000F18BF4EF0010EC1
:10054000A4F1FF04B6F5007F64F5407404D25FEABD
:100550004E0E6D4146EB060642EAC62141EA555170
:100560004FEAC52040EA5E504FEACE2EB4F1FD0CB2
:1005700088BFBCF5E06F1ED8BEF1004F08BF5FEA30
:10058000500E50F1000041EB045170BD06F00046E2
:1005900046EA010140EA020081EA0301B4EB5C048F
:1005A000C2BFD4EB0C0541EA045170BD41F4801187
:1005B0004FF0000E013C00F3AB8014F1360FDEBFAC
:1005C000002001F0004170BDC4F10004203C35DA88
:1005D0000C341BDC04F11404C4F1200500FA05F30B
:1005E00020FA04F001FA05F240EA020001F00042AC
:1005F00021F0004110EBD37021FA04F642EB060122
:100600005EEA430E08BF20EAD37070BDC4F10C044B
:10061000C4F1200500FA04F320FA05F001FA04F20F
:1006200040EA020001F0004110EBD37041F10001FB
:100630005EEA430E08BF20EAD37070BDC4F1200506
:1006400000FA05F24EEA020E20FA04F301FA05F26E
:1006500043EA020321FA04F001F0004121FA04F216
:1006600020EA020000EBD3705EEA430E08BF20EAE6
:10067000D37070BD94F0000F0FD101F00046400020
:1006800041EB010111F4801F08BF013CF7D041EAA2
:10069000060195F0000F18BF704703F000465200A6
:1006A00043EB030313F4801F08BF013DF7D043EA77
:1006B0000603704794EA0C0F0CEA135518BF95EA2D
:1006C0000C0F0CD050EA410618BF52EA4306D1D1B4
:1006D00081EA030101F000414FF0000070BD50EAD3
:1006E000410606BF1046194652EA430619D094EA5D
:1006F0000C0F02D150EA013613D195EA0C0F05D147
:1007000052EA03361CBF104619460AD181EA03019A
:1007100001F0004141F0FE4141F470014FF0000052
:1007200070BD41F0FE4141F4780170BD70B54FF0ED
:10073000FF0C4CF4E06C1CEA11541DBF1CEA13556D
:1007400094EA0C0F95EA0C0F00F0A7F8A4EB05044F
:1007500081EA030E52EA03354FEA013100F0888046
:100760004FEA03334FF0805545EA131343EA12630F
:100770004FEA022245EA111545EA10654FEA0026C4
:100780000EF000419D4208BF964244F1FD0404F57D
:10079000407402D25B084FEA3202B61A65EB0305D9
:1007A0005B084FEA32024FF480104FF4002CB6EB96
:1007B000020E75EB030E22BFB61A754640EA0C0016
:1007C0005B084FEA3202B6EB020E75EB030E22BF56
:1007D000B61A754640EA5C005B084FEA3202B6EB97
:1007E000020E75EB030E22BFB61A754640EA9C0056
:1007F0005B084FEA3202B6EB020E75EB030E22BF26
:10080000B61A754640EADC0055EA060E18D04FEAE3
:10081000051545EA16754FEA06164FEAC30343EA83
:1008200052734FEAC2025FEA1C1CC0D111F4801F50
:100830000BD141EA00014FF000004FF0004CB6E749
:1008400011F4801F04BF01430020B4F1FD0C88BFE8
:10085000BCF5E06F3FF6AFAEB5EB030C04BFB6EBF3
:10086000020C5FEA500C50F1000041EB045170BDE6
:100870000EF0004E4EEA113114EB5C04C2BFD4EB13
:100880000C0541EA045170BD41F480114FF0000E97
:10089000013C90E645EA060E8DE60CEA135594EA13
:1008A0000C0F08BF95EA0C0F3FF43BAF94EA0C0F16
:1008B0000AD150EA01347FF434AF95EA0C0F7FF48B
:1008C00025AF104619462CE795EA0C0F06D152EADF
:1008D00003353FF4FDAE1046194622E750EA4106C3
:1008E00018BF52EA43067FF4C5AE50EA41047FF4D4
:1008F0000DAF52EA43057FF4EBAE12E74FF0FF3C39
:1009000006E000BF4FF0010C02E000BF4FF0010C09
:100910004DF804CD4FEA410C7FEA6C5C4FEA430C82
:1009200018BF7FEA6C5C1BD001B050EA410C0CBFD1
:1009300052EA430C91EA030F02BF90EA020F002033
:10094000704710F1000F91EA030F58BF994208BF9A
:1009500090422CBFD8176FEAE37040F00100704757
:100960004FEA410C7FEA6C5C02D150EA013C07D1AE
:100970004FEA430C7FEA6C5CD6D152EA033CD3D0F9
:100980005DF8040B704700BF8446104662468C46F3
:100990001946634600E000BF01B5FFF7B7FF002826
:1009A00048BF10F1000F01BD4DF808EDFFF7F4FF4F
:1009B0000CBF012000205DF808FB00BF4DF808EDDA
:1009C000FFF7EAFF34BF012000205DF808FB00BFFD
:1009D0004DF808EDFFF7E0FF94BF012000205DF81F
:1009E00008FB00BF4DF808EDFFF7CEFF94BF0120D4
:1009F00000205DF808FB00BF4DF808EDFFF7C4FFCD
:100A000034BF012000205DF808FB00BF4FEA410C15
:100A10007FEA6C5C02D150EA013C0AD14FEA430CF8
:100A20007FEA6C5C02D152EA033C02D14FF0000035
:100A300070474FF0010070474FEA410212F5001273
:100A400015D211D56FF47873B3EB625212D94FEA15
:100A5000C12343F0004343EA505311F0004F23FAFF
:100A600002F018BF404270474FF00000704750EA54
:100A7000013005D111F0004008BF6FF00040704711
:100A80004FF00000704700BF80B582B000AF104B40
:100A90005B690F4A43F0010353610D4B5B6903F03F
:100AA00001037B607B68002203210C2000F03DFDE8
:100AB0000C2000F056FD002203210F2000F035FD30
:100AC0000F2000F04EFD00BF0837BD4680BD00BFBF
:100AD0000010024080B588B000AF07F1100300227B
:100AE0001A605A609A60DA60234B9B69224A43F08D
:100AF00020039361204B9B6903F02003FB60FB689C
:100B00001D4B9B691C4A43F0040393611A4B9B697C
:100B100003F00403BB60BB68174B9B69164A43F0A4
:100B200008039361144B9B6903F008037B607B68A7
:100B300000221821114801F017FB01233B6100231B
:100B40007B610023BB6107F1100319460B4801F0DC
:100B500087F918233B6101237B610023BB610223DA
:100B6000FB6107F110031946044801F079F900BF51
:100B70002037BD4680BD00BF00100240000C014080
:100B800080B500AF02F0B4FF00F096FB00F011F862
:100B9000FFF7A0FFFFF778FF00F06AF800F0A2FA75
:100BA00000F014FB09F066FB00F09AF80AF0BEFBB7
:100BB000FEE780B594B000AF07F12803282200219A
:100BC00018460AF04DFD07F1140300221A605A601E
:100BD0009A60DA601A613B1D00221A605A609A60BE
:100BE000DA600123BB624FF48033FB6200233B6376
:100BF0000123BB6302237B644FF48033BB644FF457
:100C0000E013FB6407F12803184603F00BF80346D2
:100C1000002B01D000F027F80F237B610223BB617A
:100C20000023FB614FF480633B6200237B6207F18A
:100C300014030221184603F077FA0346002B01D073
:100C400000F011F810237B6000233B613B1D184628
:100C500003F002FC0346002B01D000F004F800BFB3
:100C60005037BD4680BD80B400AF72B600BFFEE70E
:100C700080B500AF184B194A1A60174B4FF48272B7
:100C80005A60154B4FF480629A60134B0022DA6071
:100C9000114B02221A61104B00225A610E4B4FF485
:100CA00000729A610C4B1822DA610B4B00221A6217
:100CB000094B00225A62084B00229A62064B0A2214
:100CC000DA62054803F07EFC0346002B01D0FFF7F3
:100CD000CAFF00BF80BD00BF5C03002000300140A0
:100CE00080B500AF174B184A1A60164B4FF482724A
:100CF0005A60144B00229A60124B0022DA60114BAA
:100D000000221A610F4B01225A610E4B4FF4007200
:100D10009A610C4B0822DA610A4B00221A62094BD5
:100D200000225A62074B00229A62064B0A22DA62BC
:100D3000044803F047FC0346002B01D0FFF793FF64
:100D400000BF80BDB40300200038004080B58AB0E9
:100D500000AF786007F1180300221A605A609A60A9
:100D6000DA607B681B68604A93425FD15F4B9B6986
:100D70005E4A43F4805393615C4B9B6903F4805358
:100D80007B617B69594B9B69584A43F0040393612B
:100D9000564B9B6903F004033B613B692023BB6115
:100DA0000223FB6103237B6207F1180319465048B5
:100DB00001F056F84023BB610023FB6100233B6236
:100DC00007F1180319464A4801F04AF8494B4A4AC4
:100DD0001A60484B00225A60464B00229A60454BED
:100DE0008022DA60434B00221A61424B00225A6192
:100DF000404B00229A613F4B4FF48052DA613D48EC
:100E000000F0CAFB0346002B01D0FFF72CFF7B68E4
:100E1000384ADA64374A7B68536200220321232070
:100E200000F083FB232000F09CFB58E07B681B68EC
:100E3000324A934253D12D4BDB692C4A43F4804311
:100E4000D3612A4BDB6903F48043FB60FB68274BCB
:100E50009B69264A43F008039361244B9B6903F086
:100E60000803BB60BB684FF42043BB610223FB61F6
:100E700003237B6207F118031946214800F0F0FFB5
:100E8000204B214A1A601F4B10225A601D4B002232
:100E90009A601C4B8022DA601A4B00221A61194BAF
:100EA00000225A61174B00229A61164B4FF4805270
:100EB000DA61144800F070FB0346002B01D0FFF705
:100EC000D2FE7B680F4A9A640E4A7B685362002206
:100ED0000321242000F029FB242000F042FB00BF66
:100EE0002837BD4680BD00BF0030014000100240E1
:100EF000000801400C0400201C00024000380040A3
:100F0000000C0140500400205800024080B485B01D
:100F100000AF154B9B69144A43F001039361124BD8
:100F20009B6903F00103BB60BB680F4BDB690E4A92
:100F300043F08053D3610C4BDB6903F080537B603B
:100F40007B680A4B5B68FB60FB6823F0E063FB6037
:100F5000FB6843F00073FB60044AFB68536000BF0A
:100F60001437BD4680BC70470010024000000140AD
:100F700080B400AFFEE780B400AFFEE780B400AFFE
:100F8000FEE780B400AFFEE780B400AFFEE780B4B8
:100F900000AF00BFBD4680BC704780B400AF00BF4B
:100FA000BD4680BC704780B400AF00BFBD4680BC6A
:100FB000704780B500AF00F0C5F900BF80BD0000EC
:100FC00080B500AF024800F017FC00BF80BD00BF35
:100FD0000C04002080B500AF024800F00DFC00BFFB
:100FE00080BD00BF5004002080B500AF024801F072
:100FF00004FA00BF80BD00BF140E002080B500AF12
:101000000AF00CFA024803F0EDFE00BF80BD00BFFD
:101010009804002080B500AF024803F00DFC00BF2B
:1010200080BD00BF5C03002080B500AF024803F024
:1010300003FC00BF80BD00BFB403002080B400AF3C
:1010400001231846BD4680BC704780B582B000AF12
:10105000786039600AF0CCFA034616221A604FF025
:10106000FF3318460837BD4680BD80B582B000AF5B
:1010700078604FF0FF317868FFF7E7FFFEE7000088
:1010800080B584B000AF7860114B1B68002B02D193
:101090000F4B104A1A600E4B1B68FB600C4B1A6812
:1010A0007B6813446A46934207D90AF0A1FA0346C3
:1010B0000C221A604FF0FF3306E0054B1A687B687C
:1010C0001344034A1360FB6818461037BD4680BDC1
:1010D00094040020C81F002080B400AF00BFBD46AC
:1010E00080BC704780B586B000AF07F108030022CE
:1010F0001A605A609A60DA603B4600221A605A60B1
:101100001D4B1E4A1A601C4B47225A601A4B002284
:101110009A60194B40F2E732DA60174B00221A61ED
:10112000154B00229A61144803F0BAFD0346002BC8
:1011300001D0FFF798FD4FF48053BB6007F108031F
:1011400019460D4803F056FF0346002B01D0FFF768
:101150008AFD00233B6000237B603B46194606481E
:1011600004F032F90346002B01D0FFF77CFD00BFED
:101170001837BD4680BD00BF98040020000800401D
:1011800080B584B000AF78607B681B680D4A9342DD
:1011900013D10D4BDB690C4A43F00403D3610A4BB6
:1011A000DB6903F00403FB60FB68002200211E20C2
:1011B00000F0BBF91E2000F0D4F900BF1037BD4687
:1011C00080BD00BF000800400010024080B500AFA5
:1011D000114B124A1A60104B4FF4E1325A600E4B19
:1011E00000229A600C4B0022DA600B4B00221A613D
:1011F000094B0C225A61084B00229A61064B0022CF
:10120000DA61054804F050F90346002B01D0FFF7DE
:101210002AFD00BF80BD00BFE0040020003801406F
:1012200080B588B000AF786007F1100300221A6023
:101230005A609A60DA607B681B681C4A934231D11D
:101240001B4B9B691A4A43F480439361184B9B697B
:1012500003F48043FB60FB68154B9B69144A43F021
:1012600004039361124B9B6903F00403BB60BB68EA
:101270004FF400733B6102237B610323FB6107F1A1
:10128000100319460B4800F0EBFD4FF480633B61FF
:1012900000237B610023BB6107F110031946054859
:1012A00000F0DEFD00BF2037BD4680BD00380140A4
:1012B000001002400008014080B500AF084B1B68D9
:1012C000074A43F010031360032000F023F90020C5
:1012D00000F008F8FFF71AFE0023184680BD00BF93
:1012E0000020024080B582B000AF7860124B1A68CF
:1012F000124B1B7819464FF47A73B3FBF1F3B2FB30
:10130000F3F3184600F03BF90346002B01D001230C
:101310000EE07B680F2B0AD8002279684FF0FF306F
:1013200000F003F9064A7B681360002300E0012304
:1013300018460837BD4680BD000000200800002088
:101340000400002080B400AF054B1B781A46054B03
:101350001B681344034A136000BFBD4680BC70473E
:10136000080000202405002080B400AF024B1B6859
:101370001846BD4680BC70472405002080B485B067
:1013800000AF78607B6803F00703FB600C4BDB6801
:10139000BB60BA684FF6FF031340BB60FB681A02DC
:1013A000BB68134343F0BF6343F40033BB60044A9C
:1013B000BB68D36000BF1437BD4680BC704700BF18
:1013C00000ED00E080B400AF044BDB681B0A03F0C3
:1013D00007031846BD4680BC704700BF00ED00E023
:1013E00080B483B000AF0346FB7197F90730002B40
:1013F0000BDBFB7903F01F02064997F907305B0905
:10140000012000FA02F241F8232000BF0C37BD464C
:1014100080BC704700E100E080B483B000AF0346B9
:101420003960FB7197F90730002B0ADB3B68DAB2B1
:101430000C4997F907301201D2B20B4483F800230C
:101440000AE03B68DAB20849FB7903F00F03043B7A
:101450001201D2B20B441A7600BF0C37BD4680BCD5
:10146000704700BF00E100E000ED00E080B489B00B
:1014700000AFF860B9607A60FB6803F00703FB61B6
:10148000FB69C3F10703042B28BF0423BB61FB697D
:101490000433062B02D9FB69033B00E000237B6188
:1014A0004FF0FF32BB6902FA03F3DA43BB681A401C
:1014B0007B699A404FF0FF317B6901FA03F3D9430E
:1014C0007B680B40134318462437BD4680BC7047E9
:1014D00080B582B000AF78607B68013BB3F1807F5C
:1014E00001D301230FE00A4A7B68013B53600F21BF
:1014F0004FF0FF30FFF790FF054B00229A60044B3E
:1015000007221A60002318460837BD4680BD00BF79
:1015100010E000E080B582B000AF78607868FFF737
:101520002DFF00BF0837BD4680BD80B586B000AF37
:101530000346B9607A60FB7300237B61FFF742FFCB
:1015400078617A68B9687869FFF790FF024697F981
:101550000F3011461846FFF75FFF00BF1837BD4632
:1015600080BD80B582B000AF0346FB7197F90730AC
:101570001846FFF735FF00BF0837BD4680BD80B570
:1015800082B000AF78607868FFF7A2FF0346184684
:101590000837BD4680BD000080B485B000AF7860DC
:1015A0000023FB607B68002B01D1012343E07B68B3
:1015B0001B681A46224B1344224AA2FB03231B0931
:1015C0009A007B681A647B681F4ADA637B68022290
:1015D00083F821207B681B681B68FB60FB6823F491
:1015E0007F5323F03003FB607B685A687B689B68FD
:1015F0001A437B68DB681A437B681B691A437B6864
:101600005B691A437B689B691A437B68DB691343F8
:10161000FA681343FB607B681B68FA681A607B6892
:1016200000229A637B68012283F821207B680022D4
:1016300083F82020002318461437BD4680BC70472D
:10164000F8FFFDBFCDCCCCCC0000024080B586B009
:1016500000AFF860B9607A603B600023FB75FB68FF
:1016600093F82030012B01D102234AE0FB680122CC
:1016700083F82020FB6893F82130012B3AD1FB68D6
:10168000022283F82120FB6800229A63FB681B6812
:101690001A68FB681B6822F001021A603B687A68CE
:1016A000B968F86800F0AEF9FB68DB6A002B08D077
:1016B000FB681B681A68FB681B6842F00E021A6020
:1016C0000FE0FB681B681A68FB681B6822F00402C5
:1016D0001A60FB681B681A68FB681B6842F00A0204
:1016E0001A60FB681B681A68FB681B6842F00102FD
:1016F0001A6005E0FB68002283F820200223FB75B6
:10170000FB7D18461837BD4680BD000080B584B00B
:1017100000AF78600023FB737B6893F82130022BC5
:1017200005D07B6804229A630123FB7351E07B6838
:101730001B681A687B681B6822F00E021A607B68BF
:101740001B681A687B681B6822F001021A607B68BC
:101750001B68224A934229D07B681B68204A934227
:1017600022D07B681B681F4A93421AD07B681B6893
:101770001D4A934212D07B681B681C4A93420AD0D0
:101780007B681B681A4A934202D14FF480130EE023
:101790004FF080730BE04FF4803308E04FF4805338
:1017A00005E04FF4807302E0102300E00123114AAA
:1017B00053607B68012283F821207B68002283F834
:1017C00020207B685B6B002B03D07B685B6B7868A9
:1017D0009847FB7B18461037BD4680BD0800024085
:1017E0001C00024030000240440002405800024009
:1017F0006C0002400000024080B584B000AF786009
:101800007B68DB6B1B68FB607B681B681B68BB60CD
:101810007B681B6C04229A40FB681340002B4FD05E
:10182000BB6803F00403002B4AD07B681B681B686D
:1018300003F02003002B07D17B681B681A687B68C4
:101840001B6822F004021A607B681B68664A934298
:1018500029D07B681B68654A934222D07B681B684D
:10186000634A93421AD07B681B68624A934212D043
:101870007B681B68604A93420AD07B681B685F4A9A
:10188000934202D14FF480030EE04FF080630BE0EF
:101890004FF4802308E04FF4804305E04FF4806369
:1018A00002E0402300E00423554A53607B68DB6A72
:1018B000002B00F094807B68DB6A786898478EE0A4
:1018C0007B681B6C02229A40FB681340002B56D0A9
:1018D000BB6803F00203002B51D07B681B681B68B8
:1018E00003F02003002B0BD17B681B681A687B6810
:1018F0001B6822F00A021A607B68012283F821200B
:101900007B681B68384A934229D07B681B68374A3A
:10191000934222D07B681B68354A93421AD07B6879
:101920001B68344A934212D07B681B68324A934248
:101930000AD07B681B68314A934202D14FF40013EE
:101940000EE04FF000730BE04FF4003308E04FF46B
:10195000005305E04FF4007302E0202300E002236F
:10196000274A53607B68002283F820207B689B6AAB
:10197000002B34D07B689B6A786898472FE07B689F
:101980001B6C08229A40FB681340002B28D0BB68D0
:1019900003F00803002B23D07B681B681A687B6860
:1019A0001B6822F00E021A607B681A6C7B68DB6B86
:1019B000012101FA02F25A607B6801229A637B6876
:1019C000012283F821207B68002283F820207B6895
:1019D0001B6B002B04D07B681B6B7868984700BF9B
:1019E00000BF1037BD4680BD080002401C00024009
:1019F0003000024044000240580002406C000240A7
:101A00000000024080B485B000AFF860B9607A6031
:101A10003B60FB681A6CFB68DB6B012101FA02F288
:101A20005A60FB681B683A685A60FB685B68102B59
:101A300008D1FB681B687A689A60FB681B68BA6803
:101A4000DA6007E0FB681B68BA689A60FB681B688D
:101A50007A68DA6000BF1437BD4680BC704700006A
:101A6000F0B587B000AFF860B960C7E90023012383
:101A7000FB750023BB7500237B752F4B1B7E012B51
:101A800001D1022354E02C4B01221A764CF2503043
:101A900000F0A8F80346FB75FB7D002B44D1FB68E2
:101AA000012B02D101237B7507E0FB68022B02D1D9
:101AB00002237B7501E004237B750023BB752DE0B9
:101AC000BB7D5A00BB6802EB030CBB7D1901D7E953
:101AD0000023C1F12006A1F1200022FA01F403FA4B
:101AE00006F6344323FA00F0044323FA01F5A3B2C7
:101AF0001946604600F05AF84CF2503000F072F887
:101B00000346FB750D4B1B690C4A23F0010313615F
:101B1000FB7D002B07D1BB7D0133BB75BA7D7B7D7F
:101B20009A42CDD300E000BF034B00221A76FB7D22
:101B300018461C37BD46F0BD280500200020024095
:101B400080B483B000AF0023FB710D4B1B6903F021
:101B50008003002B0DD00A4B0A4A5A60084B0A4AF0
:101B60005A60074B1B6903F08003002B01D001234F
:101B7000FB71FB7918460C37BD4680BC704700BF2F
:101B80000020024023016745AB89EFCD80B400AF50
:101B9000054B1B69044A43F0800313610023184678
:101BA000BD4680BC704700BF0020024080B483B0B7
:101BB00000AF78600B467B80084B0022DA61084B4F
:101BC0001B69074A43F0010313617B687A881A8016
:101BD00000BF0C37BD4680BC704700BF2805002001
:101BE0000020024080B584B000AF7860FFF7BCFBF6
:101BF000F86010E07B68B3F1FF3F0CD07B68002BEE
:101C000007D0FFF7B1FB0246FB68D31A7A689A4205
:101C100001D2032325E0154BDB6803F00103002B01
:101C2000E8D1124BDB6803F02003002B02D00F4BEE
:101C30002022DA600D4BDB6803F01003002B0BD180
:101C40000A4BDB6903F00103002B05D1074BDB686E
:101C500003F00403002B03D000F00AF8012300E096
:101C6000002318461037BD4680BD00BF002002404B
:101C700080B483B000AF00237B60234BDB6803F0AC
:101C80001003002B09D0214BDB6943F002031F4AEC
:101C9000D3617B6843F010037B601B4BDB6803F070
:101CA0000403002B09D0194BDB6943F00103174AE9
:101CB000D3617B6843F004037B60134BDB6903F063
:101CC0000103002B0BD0114BDB6943F004030F4AD7
:101CD000D3610D4BDB690C4A23F00103D3617B68B0
:101CE00040F20112934206D1074BDB69064A23F00A
:101CF0000103D36102E0044A7B68D36000BF0C3764
:101D0000BD4680BC704700BF00200240280500206F
:101D100080B584B000AF786039600123FB73002385
:101D2000BB602F4B1B7E012B01D1022353E02C4BB8
:101D300001221A767B681B68022B16D14CF25030B8
:101D4000FFF750FF0346002B41D1012000F04CF873
:101D50004CF25030FFF746FF0346FB73214B1B69E3
:101D6000204A23F00403136131E04CF25030FFF7B6
:101D700039FF0346002B2AD13B684FF0FF321A602F
:101D80007B689B68BB6019E0B86800F049F84CF2CA
:101D90005030FFF727FF0346FB73124B1B69114AB4
:101DA00023F002031361FB7B002B03D03B68BA686E
:101DB0001A600CE0BB6803F58063BB607B68DB687E
:101DC0009A027B689B681344BA689A42DCD3044B3E
:101DD00000221A76FB7B18461037BD4680BD00BF37
:101DE000280500200020024080B483B000AF786056
:101DF000094B0022DA61094B1B69084A43F00403CE
:101E00001361064B1B69054A43F04003136100BF91
:101E10000C37BD4680BC70472805002000200240DA
:101E200080B483B000AF78600B4B0022DA610B4BBB
:101E30001B690A4A43F002031361084A7B68536135
:101E4000064B1B69054A43F04003136100BF0C3782
:101E5000BD4680BC704700BF28050020002002401E
:101E600080B48BB000AF7860396000237B620023C0
:101E70003B6269E101227B6A02FA03F3FB613B6882
:101E80001B68FA691340BB61BA69FB699A4240F06A
:101E900058813B685B689A4A93425ED0984A934265
:101EA00075D8984A934258D0964A93426FD8964A2A
:101EB000934252D0944A934269D8944A93424CD068
:101EC000924A934263D8924A934246D0904A9342B0
:101ED0005DD8122B2AD8122B59D801A252F823F020
:101EE0005B1F0008351F0008471F0008891F0008F6
:101EF0008F1F00088F1F00088F1F00088F1F00080A
:101F00008F1F00088F1F00088F1F00088F1F0008F9
:101F10008F1F00088F1F00088F1F00088F1F0008E9
:101F20008F1F00083D1F0008511F0008794A934287
:101F300013D02CE03B68DB683B6229E03B68DB6840
:101F400004333B6224E03B68DB6808333B621FE0FC
:101F50003B68DB680C333B621AE03B689B68002BF4
:101F600002D104233B6213E03B689B68012B05D13F
:101F700008233B627B68FA691A6109E008233B6227
:101F80007B68FA695A6103E000233B6200E000BF0E
:101F9000BB69FF2B01D87B6801E07B6804337B6160
:101FA000BB69FF2B02D87B6A9B0002E07B6A083B7F
:101FB0009B003B617B691A680F213B6901FA03F3BF
:101FC000DB431A40396A3B6901FA03F31A437B6920
:101FD0001A603B685B6803F08053002B00F0B1800F
:101FE0004D4B9B694C4A43F0010393614A4B9B69FB
:101FF00003F00103BB60BB68484A7B6A9B0802335D
:1020000052F82330FB607B6A03F003039B000F222E
:1020100002FA03F3DB43FA681340FB607B68404A33
:10202000934213D07B683F4A93420DD07B683E4A6F
:10203000934207D07B683D4A934201D1032306E0D7
:10204000042304E0022302E0012300E000237A6A73
:1020500002F0030292009340FA681343FB602F4999
:102060007B6A9B080233FA6841F823203B685B686F
:1020700003F48033002B06D02D4B1A682C49BB6922
:1020800013430B6006E02A4B1A68BB69DB432849FF
:1020900013400B603B685B6803F40033002B06D0F1
:1020A000234B5A682249BB6913434B6006E0204B1F
:1020B0005A68BB69DB431E4913404B603B685B6851
:1020C00003F48013002B06D0194B9A681849BB699A
:1020D00013438B6006E0164B9A68BB69DB431449D7
:1020E00013408B603B685B6803F40013002B21D026
:1020F0000F4BDA680E49BB691343CB6021E000BF88
:1021000000003210000031100000221000002110E9
:1021100000001210000011100010024000000140E9
:1021200000080140000C0140001001400014014073
:10213000000401400B4BDA68BB69DB4309491340DB
:10214000CB607B6A01337B623B681A687B6A22FA48
:1021500003F3002B7FF48EAE00BF00BF2C37BD46CB
:1021600080BC70470004014080B483B000AF786049
:102170000B467B8013467B707B78002B03D07A88DC
:102180007B681A6103E07B881A047B681A6100BFD0
:102190000C37BD4680BC7047F0B58BB006AF786099
:1021A0007B68002B01D10123FDE07B6893F8A93205
:1021B000DBB2002B06D17B68002283F8A822786866
:1021C00008F0B2F97B68032283F8A9227B681B68B8
:1021D000184603F0E9FB7B681B683B607E686D4630
:1021E00006F110040FCC0FC523682B60331D0ECBF6
:1021F000386803F0B3FB0346002B05D07B6802224E
:1022000083F8A9220123CEE07B681B6800211846D1
:1022100003F0E4FB0023FB734CE0FB7B79685A1C62
:1022200013469B001344DB000B44013301221A7058
:10223000FB7B79685A1C13469B001344DB000B445C
:10224000FA7B1A70FA7BFB7B98B2796813469B0085
:102250001344DB000B44363302461A80FB7B79685B
:102260005A1C13469B001344DB000B44033300222B
:102270001A70FA7B796813469B001344DB000B4409
:10228000383300221A60FA7B796813469B001344A6
:10229000DB000B443C3300221A60FA7B796813465A
:1022A0009B001344DB000B44403300221A60FB7B8D
:1022B0000133FB73FA7B7B685B689A42ADD30023E2
:1022C000FB7344E0FA7B796813469B001344DB0000
:1022D0000B4403F2691300221A70FA7B79681346E3
:1022E0009B001344DB000B4403F5B473FA7B1A70B4
:1022F000FA7B796813469B001344DB000B4403F21E
:102300006B1300221A70FA7B796813469B00134402
:10231000DB000B4403F5BC7300221A60FA7B79687A
:1023200013469B001344DB000B4403F5BE730022ED
:102330001A60FA7B796813469B001344DB000B4458
:1023400003F5C07300221A60FB7B0133FB73FA7B39
:102350007B685B689A42B5D37B681B683B607E688C
:102360006D4606F110040FCC0FC523682B60331D9A
:102370000ECB386803F03EFB0346002B05D07B688C
:10238000022283F8A92201230DE07B68002283F852
:1023900024207B68012283F8A9227B681B681846E9
:1023A00005F0F0FF002318461437BD46F0BD80B598
:1023B00082B000AF78607B6893F8A832012B01D11E
:1023C000022316E07B68012283F8A8227B681B6841
:1023D000184603F0D3FA0121786808F0FCFA7B680C
:1023E0001B68184605F0C4FF7B68002283F8A8220A
:1023F000002318460837BD4680BD80B588B000AFC1
:1024000078607B681B68184605F0C6FF034603F436
:102410000043B3F5004F02D1786800F048FB7B68B9
:102420001B68184605F0B8FF034603F48063B3F554
:10243000806F12D17B681B68B3F844309AB27B6816
:102440001B6822F4806292B2A3F84420786808F0F6
:10245000E6F80021786800F023F97B681B681846CD
:1024600005F09AFF034603F48043B3F5804F0BD188
:102470007B681B68B3F844309AB27B681B6822F40F
:10248000804292B2A3F844207B681B68184605F08E
:1024900083FF034603F40053B3F5005F0BD17B6861
:1024A0001B68B3F844309AB27B681B6822F4005270
:1024B00092B2A3F844207B681B68184605F06CFFB5
:1024C000034603F48053B3F5805F26D17B681B6815
:1024D000B3F840309AB27B681B6822F0040292B2D3
:1024E000A3F840207B681B68B3F840309AB27B6841
:1024F0001B6822F0080292B2A3F84020786808F026
:10250000C7F87B681B68B3F844309AB27B681B68D5
:1025100022F4805292B2A3F844207B681B681846CC
:1025200005F03AFF034603F40063B3F5006F40F093
:1025300082800023FB7710E07B681B681A46FB7FD4
:102540009B001A44FB7F128892B25B0020333B440D
:1025500023F8142CFB7F0133FB77FB7F072BEBD990
:102560007B681B68B3F840309AB27B681B6842F006
:10257000010292B2A3F840207B681B68B3F8403098
:102580009AB27B681B6822F0010292B2A3F8402045
:1025900000BF7B681B68B3F844309BB203F48063D0
:1025A000002BF6D07B681B68B3F844309AB27B6886
:1025B0001B6822F4806292B2A3F844200023FB77C8
:1025C0000FE0FB7F7A6812681146FA7F92000A4496
:1025D0005B0020333B4433F8143C1380FB7F013312
:1025E000FB77FB7F072BECD97B681B68B3F8403087
:1025F0009AB27B681B6842F0080292B2A3F84020AE
:102600007B681B68B3F844309AB27B681B6822F47D
:10261000006292B2A3F844207B681B68B3F8403094
:102620009AB27B681B6842F0040292B2A3F8402081
:10263000786808F013F87B681B68184605F0ACFE54
:10264000034603F40073B3F5007F0ED17B681B686B
:10265000B3F844309AB27B681B6822F4007292B2DD
:10266000A3F84420786807F0CCFF7B681B68184605
:1026700005F092FE034603F48073B3F5807F0BD11F
:102680007B681B68B3F844309AB27B681B6822F4FD
:10269000807292B2A3F8442000BF2037BD4680BDAF
:1026A00080B582B000AF78600B46FB707B6893F812
:1026B000A832012B01D1022313E07B68012283F8A9
:1026C000A8227B68FA7883F824207B681B68FA7854
:1026D0001146184605F039FE7B68002283F8A822CF
:1026E000002318460837BD4680BD80B584B000AFD2
:1026F0007860084611461A460346FB700B463B803D
:102700001346BB700023FB7297F90330002B0EDADF
:10271000FB7803F007035A1C13469B001344DB00AD
:102720007A681344FB60FB6801225A700EE0FB7864
:1027300003F0070213469B001344DB0003F5B47358
:102740007A681344FB60FB6800225A70FB7803F040
:102750000703DAB2FB681A703A88FB681A61FB68F3
:10276000BA78DA70FB685B78002B04D0FB681B78C2
:102770009AB2FB68DA81BB78022B02D1FB68002297
:102780001A717B6893F8A832012B01D102230EE065
:102790007B68012283F8A8227B681B68F9681846C9
:1027A00003F048F97B68002283F8A822FB7A1846D8
:1027B0001037BD4680BD80B584B000AF78600B4651
:1027C000FB7097F90330002B0EDAFB7803F0070358
:1027D0005A1C13469B001344DB007A681344FB60C9
:1027E000FB6801225A700EE0FB7803F007021346E3
:1027F0009B001344DB0003F5B4737A681344FB6059
:10280000FB6800225A70FB7803F00703DAB2FB681A
:102810001A707B6893F8A832012B01D102230EE0D5
:102820007B68012283F8A8227B681B68F968184638
:1028300003F06AFC7B68002283F8A8220023184674
:102840001037BD4680BD80B586B000AFF8607A60B5
:102850003B600B46FB72FB7A03F0070213469B00BA
:102860001344DB0003F5B473FA6813447B617B699E
:102870007A685A617B693A689A617B690022DA61F9
:102880007B6900225A70FB7A03F00703DAB27B6996
:102890001A70FB7A03F00703002B06D1FB681B6854
:1028A0007969184603F01CFE05E0FB681B6879692E
:1028B000184603F015FE002318461837BD4680BDA4
:1028C00080B586B000AFF8607A603B600B46FB7263
:1028D000FB7A03F007035A1C13469B001344DB00EA
:1028E000FA6813447B617B697A685A617B693A684C
:1028F0009A617B69012283F824207B693A681A6215
:102900007B690022DA617B6901225A70FB7A03F04D
:102910000703DAB27B691A70FB7A03F00703002B16
:1029200006D1FB681B687969184603F0D9FD05E0FC
:10293000FB681B687969184603F0D2FD002318462E
:102940001837BD4680BD80B584B000AF78600B46B7
:10295000FB70FB7803F007027B685B689A4201D941
:1029600001234CE097F90330002B0EDAFB7803F0DB
:1029700007035A1C13469B001344DB007A68134478
:10298000FB60FB6801225A700CE0FA7813469B004A
:102990001344DB0003F5B4737A681344FB60FB68EF
:1029A00000225A70FB6801229A70FB7803F007033B
:1029B000DAB2FB681A707B6893F8A832012B01D158
:1029C00002231CE07B68012283F8A8227B681B6835
:1029D000F968184605F0BCFBFB7803F00703002BF1
:1029E00008D17B681A687B6803F52C73194610467A
:1029F00005F0E1FC7B68002283F8A822002318463A
:102A00001037BD4680BD80B584B000AF78600B46FE
:102A1000FB70FB7803F00F027B685B689A4201D978
:102A2000012340E097F90330002B0EDAFB7803F026
:102A300007035A1C13469B001344DB007A681344B7
:102A4000FB60FB6801225A700EE0FB7803F007027E
:102A500013469B001344DB0003F5B4737A681344F8
:102A6000FB60FB6800225A70FB6800229A70FB78BA
:102A700003F00703DAB2FB681A707B6893F8A83298
:102A8000012B01D102230EE07B68012283F8A822EA
:102A90007B681B68F968184605F0AAFB7B68002272
:102AA00083F8A822002318461037BD4680BD80B5A4
:102AB0008EB000AF7860ECE27B681B68B3F84430FE
:102AC000FB85FB8DDBB203F00F0387F82D3097F801
:102AD0002D30002B40F06181FB8D03F01003002BA3
:102AE00052D17B681B681B889BB223F4E14323F01F
:102AF0007003FB817B681A68FB896FEA43436FEAC6
:102B000053439BB213807B6828337B627B681B68CE
:102B1000B3F850309BB21A467B6A1B78DB00134433
:102B200002335B007A681268134403F580631B88E4
:102B3000C3F309027B6ADA617B6A5A697B6ADB69E3
:102B40001A447B6A5A610021786807F040FD7B686F
:102B500093F82430DBB2002B00F09B827B6A9B69E8
:102B6000002B40F096827B6893F82430DBB263F050
:102B70007F03DAB27B681B6892B2A3F84C207B68B3
:102B8000002283F8242084E27B6803F5B4737B621F
:102B90007B681B681B887B857B8D03F40063002B9F
:102BA00034D07B681B68B3F850309BB21A467B6AFE
:102BB0001B78DB00134406335B007A681268134409
:102BC00003F580631B88C3F309027B6ADA617B68C3
:102BD00018687B6803F52C717B6ADA887B6ADB698D
:102BE0009BB205F038FC7B681B681B889AB240F6E4
:102BF0008F7313403B827B681B683A8A42F08002E5
:102C000092B21A80786807F0B5FC42E2B7F92A3030
:102C1000002B80F23E827B681B681B889AB240F6CC
:102C20008F731340BB837B681B68BA8B42F08002B2
:102C300092B21A807B681B68B3F850309BB21A4678
:102C40007B6A1B78DB00134406335B007A681268EA
:102C5000134403F580631B88C3F309027B6ADA61BE
:102C60007B6ADB69002B19D07B6A5B69002B15D06E
:102C70007B6818687B6A59697B6ADA887B6ADB69DA
:102C80009BB205F0E8FB7B6A5A697B6ADB691A44F0
:102C90007B6A5A610021786807F07EFC7B681B68BC
:102CA0001B889BB203F40063002B40F0F2817B6829
:102CB0001B68BB617B681B68B3F850309BB21A4637
:102CC000BB691344BB61BB6903F20C437B617B6A44
:102CD0001B69002B12D17B691B889BB223F4F8433C
:102CE0009AB27B691A807B691B889BB26FEA434367
:102CF0006FEA53439AB27B691A802FE07B6A1B69A3
:102D00003E2B13D87B6A1B695B083B637B6A1B699C
:102D100003F00103002B02D03B6B01333B633B6BA1
:102D20009BB29B029AB27B691A8017E07B6A1B698F
:102D30005B093B637B6A1B6903F01F03002B02D115
:102D40003B6B013B3B633B6B9BB29B029BB26FEACD
:102D500043436FEA53439AB27B691A807B681B68CE
:102D60001B889BB223F4804323F070037B827B8A11
:102D700083F480537B827B8A83F400537B827B685D
:102D80001A687B8A43F07F4343F47F0343F4004394
:102D900043F080039BB213807BE17B681B681A467B
:102DA00097F82D309B0013441B887B85B7F92A3098
:102DB000002B80F2EA807B681B681A4697F82D305A
:102DC0009B0013441B889AB240F68F7313403B85D7
:102DD0007B681B681A4697F82D309B0013443A8D88
:102DE00042F0800292B21A8097F82D2013469B0081
:102DF0001344DB0003F5B4737A6813447B627B6A87
:102E00001B7B002B22D17B681B68B3F850309BB230
:102E10001A467B6A1B78DB00134406335B007A6832
:102E20001268134403F580631B88C3F30903FB8610
:102E3000FB8E002B00F087807B6818687B6A5969DD
:102E40007B6ADA88FB8E05F006FB7CE07B6ADB7828
:102E5000022B08D17B8D1A46796A786800F027F931
:102E60000346FB866FE07B681B681A467B6A1B780B
:102E70009B0013441B889BB223F4E04323F07003B0
:102E80007B847B681B681A467B6A1B789B001A440C
:102E90007B8C43F07F4343F47F0343F4004343F0D0
:102EA000C0039BB213807B681B681A467B6A1B7841
:102EB0009B0013441B889BB203F48043002B21D05A
:102EC0007B681B68B3F850309BB21A467B6A1B784C
:102ED000DB00134402335B007A681268134403F585
:102EE00080631B88C3F30903FB86FB8E002B2AD06B
:102EF0007B6818687B6A59697B6A1A89FB8E05F0C2
:102F0000AAFA20E07B681B68B3F850309BB21A46DF
:102F10007B6A1B78DB00134406335B007A68126817
:102F2000134403F580631B88C3F30903FB86FB8E00
:102F3000002B08D07B6818687B6A59697B6A5A89BC
:102F4000FB8E05F088FA7B6ADA69FB8E1A447B6A8D
:102F5000DA617B6A5A69FB8E1A447B6A5A617B6A22
:102F60009B69002B04D0FA8E7B6A1B699A4206D2B9
:102F70007B6A1B781946786807F00EFB05E07B68D2
:102F80001B68796A184603F0ABFA7B8D03F0800367
:102F9000002B7ED097F82D305A1C13469B0013440B
:102FA000DB007A6813447B627B681B681A4697F8DB
:102FB0002D309B0013441B889BB223F4E14323F084
:102FC00070033B847B681B681A4697F82D309B0082
:102FD0001A443B8C6FEA43436FEA53439BB213801E
:102FE0007B6ADB78032B0CD07B6ADB78002B08D064
:102FF0007B6ADB78022B46D17B8D03F48073002B38
:1030000041D17B681B68B3F850309BB21A467B6A8B
:103010001B78DB00134402335B007A6812681344A8
:1030200003F580631B88C3F30903FB837B6A9A69FA
:10303000FB8B9A4206D97B6A9A69FB8BD21A7B6A10
:103040009A6102E07B6A00229A617B6A9B69002B8D
:1030500006D17B6A1B781946786807F0B8FA18E041
:103060007B6A5A69FB8B1A447B6A5A617B6ADA690C
:10307000FB8B1A447B6ADA617B681B68796A1846A5
:1030800003F02EFA05E07B8D1A46796A786800F025
:103090001BF97B681B68B3F844309BB21BB2002B52
:1030A000FFF60AAD002318463837BD4680BD80B50F
:1030B00088B000AFF860B9601346FB80FB8803F46A
:1030C0008043002B7ED0FB681B68B3F850309BB266
:1030D0001A46BB681B78DB00134402335B00FA68B6
:1030E0001268134403F580631B88C3F309037B83D1
:1030F000BB689A697B8B9A4206D3BB689A697B8BC3
:10310000D21ABB689A6102E0BB6800229A61BB6870
:103110009B69002B23D1FB681B681A46BB681B7890
:103120009B0013441B889BB223F4804323F070035D
:103130003B833B8B83F400533B83FB681B681A463D
:10314000BB681B789B001A443B8B43F07F4343F4DE
:103150007F0343F4004343F080039BB21380FB885A
:1031600003F04003002B1FD0FB681B681A46BB68A6
:103170001B789B0013441B889BB223F4E04323F08D
:103180007003FB82FB681B681A46BB681B789B00B8
:103190001A44FB8A43F07F4343F47F0343F4004324
:1031A00043F0C0039BB213807B8B002B00F0878021
:1031B000FB681868BB685969BB681A897B8B05F086
:1031C0004AF97CE0FB681B68B3F850309BB21A46A2
:1031D000BB681B78DB00134406335B00FA68126897
:1031E000134403F580631B88C3F309037B83BB6827
:1031F0009A697B8B9A4206D3BB689A697B8BD21AF9
:10320000BB689A6102E0BB6800229A61BB689B6957
:10321000002B23D1FB681B681A46BB681B789B00F8
:1032200013441B889BB223F4804323F07003FB8379
:10323000FB8B83F40053FB83FB681B681A46BB6857
:103240001B789B001A44FB8B43F07F4343F47F03BE
:1032500043F4004343F080039BB21380FB8803F0E8
:103260004003002B1FD1FB681B681A46BB681B7804
:103270009B0013441B889BB223F4E04323F07003AC
:10328000BB83FB681B681A46BB681B789B001A440B
:10329000BB8B43F07F4343F47F0343F4004343F08D
:1032A000C0039BB213807B8B002B08D0FB6818688F
:1032B000BB685969BB685A897B8B05F0CCF87B8B5E
:1032C00018462037BD4680BD80B5A2B000AFF8607B
:1032D000B9601346FB80FB8803F04003002B00F02D
:1032E000C781FB681B68B3F850309BB21A46BB68B5
:1032F0001B78DB00134402335B00FA681268134446
:1033000003F580631B88C3F30903A7F84E30BB683D
:103310009A69B7F84E309A4207D9BB689A69B7F8EC
:103320004E30D21ABB689A6102E0BB6800229A61F3
:10333000BB689B69002B40F0B980BB685B78002BB1
:1033400026D1FB681B68BB62FB681B68B3F8503072
:103350009BB21A46BB6A1344BB62BB681B781A0156
:10336000BB6A134403F204437B627B6A1B889BB2F3
:1033700023F4F8439AB27B6A1A807B6A1B889BB25B
:103380006FEA43436FEA53439AB27B6A1A801AE0AA
:10339000BB685B78012B16D1FB681B683B63FB683D
:1033A0001B68B3F850309BB21A463B6B13443B6327
:1033B000BB681B781A013B6B134403F20443FB62A6
:1033C000FB6A00221A80FB681B683B62BB685B7863
:1033D000002B26D1FB681B68BB61FB681B68B3F838
:1033E00050309BB21A46BB691344BB61BB681B7863
:1033F0001A01BB69134403F20C437B617B691B8890
:103400009BB223F4F8439AB27B691A807B691B88CC
:103410009BB26FEA43436FEA53439AB27B691A80C7
:1034200017E0BB685B78012B13D1FB681B68B3F80E
:1034300050309BB21A463B6A13443B62BB681B7810
:103440001A013B6A134403F20C43FB61FB6900223F
:103450001A80BB681B781946F86807F0B8F8FB8833
:1034600003F48043002B00F0D482FB681B681A46EB
:10347000BB681B789B0013441B889BB223F4E0437A
:1034800023F070037B82FB681B681A46BB681B78BD
:103490009B001A447B8A43F07F4343F47F0343F449
:1034A000404343F080039BB21380B2E2FB8803F4F5
:1034B0008043002B21D0FB681B681A46BB681B7831
:1034C0009B0013441B889BB223F4E04323F070035A
:1034D000A7F84430FB681B681A46BB681B789B0042
:1034E0001A44B7F8443043F07F4343F47F0343F476
:1034F000404343F080039BB21380BB6893F82430B1
:10350000012B40F08682BB685A69B7F84E301A44E6
:10351000BB685A61BB68DA69B7F84E301A44BB68B9
:10352000DA61BB681A6ABB681B699A4209D3BB6837
:103530001B693B65BB681A6A3B6DD21ABB681A628D
:1035400015E0BB681B6A002B07D1B7F84E303B650E
:10355000BB68002283F8242009E0BB68002283F8BE
:103560002420BB681B6A3B65BB6800221A62BB68EB
:103570005B78002B55D1FB681B68BB63FB681B683D
:10358000B3F850309BB21A46BB6B1344BB63BB68A5
:103590001B781A01BB6B134403F204437B633B6D3E
:1035A000002B12D17B6B1B889BB223F4F8439AB299
:1035B0007B6B1A807B6B1B889BB26FEA43436FEA7D
:1035C00053439AB27B6B1A8047E03B6D3E2B11D878
:1035D0003B6D5B08BB643B6D03F00103002B02D025
:1035E000BB6C0133BB64BB6C9BB29B029AB27B6B1E
:1035F0001A8032E03B6D5B09BB643B6D03F01F0337
:10360000002B02D1BB6C013BBB64BB6C9BB29B0229
:103610009BB26FEA43436FEA53439AB27B6B1A80C3
:103620001BE0BB685B78012B17D1FB681B683B6410
:10363000FB681B68B3F850309BB21A463B6C1344CE
:103640003B64BB681B781A013B6C134403F20443D0
:10365000FB633B6D9AB2FB6B1A80FB681868BB6812
:103660005969BB681A893B6D9BB204F0AFFED0E18B
:10367000FB681B68B3F850309BB21A46BB681B78D6
:10368000DB00134406335B00FA681268134403F549
:1036900080631B88C3F30903A7F84E30BB689A699F
:1036A000B7F84E309A4207D3BB689A69B7F84E30E4
:1036B000D21ABB689A6102E0BB6800229A61BB68BB
:1036C0009B69002B40F0C480BB685B78002B26D13F
:1036D000FB681B68FB66FB681B68B3F850309BB245
:1036E0001A46FB6E1344FB66BB681B781A01FB6E1F
:1036F000134403F20443BB66BB6E1B889BB223F4E6
:10370000F8439AB2BB6E1A80BB6E1B889BB26FEAFD
:1037100043436FEA53439AB2BB6E1A801AE0BB6808
:103720005B78012B16D1FB681B687B67FB681B6805
:10373000B3F850309BB21A467B6F13447B67BB686B
:103740001B781A017B6F134403F204433B673B6F02
:1037500000221A80FB681B68BB67BB685B78002B84
:103760002FD1FB681B68C7F88030FB681B68B3F873
:1037700050309BB21A46D7F880301344C7F88030D7
:10378000BB681B781A01D7F88030134403F20C434E
:10379000C7F88430D7F884301B889BB223F4F843F1
:1037A0009AB2D7F884301A80D7F884301B889BB23D
:1037B0006FEA43436FEA53439AB2D7F884301A80D2
:1037C00017E0BB685B78012B13D1FB681B68B3F86B
:1037D00050309BB21A46BB6F1344BB67BB681B7863
:1037E0001A01BB6F134403F20C43FB67FB6F00220B
:1037F0001A80BB681B781946F86806F0E8FEFB885B
:1038000003F48043002B40F00481FB681B681A46D8
:10381000BB681B789B0013441B889BB223F4E043D6
:1038200023F07003A7F84630FB681B681A46BB6894
:103830001B789B001A44B7F8463043F07F4343F4AB
:103840007F0343F4404343F080039BB21380E0E0E6
:10385000FB8803F48043002B21D1FB681B681A46C8
:10386000BB681B789B0013441B889BB223F4E04386
:1038700023F07003A7F84C30FB681B681A46BB683E
:103880001B789B001A44B7F84C3043F07F4343F455
:103890007F0343F4404343F080039BB21380BB6833
:1038A00093F82430012B40F0B480BB685A69B7F814
:1038B0004E301A44BB685A61BB68DA69B7F84E30BB
:1038C0001A44BB68DA61BB681A6ABB681B699A4212
:1038D00009D3BB681B693B65BB681A6A3B6DD21A8A
:1038E000BB681A6215E0BB681B6A002B07D1B7F8EA
:1038F0004E303B65BB68002283F8242009E0BB689A
:103900001B6A3B65BB6800221A62BB68002283F811
:103910002420FB681B687B66BB685B78002B55D155
:10392000FB681B68FB65FB681B68B3F850309BB2F3
:103930001A46FB6D1344FB65BB681B781A01FB6DCF
:10394000134403F20C43BB653B6D002B12D1BB6DDE
:103950001B889BB223F4F8439AB2BB6D1A80BB6DEF
:103960001B889BB26FEA43436FEA53439AB2BB6D25
:103970001A8044E03B6D3E2B11D83B6D5B087B65A4
:103980003B6D03F00103002B02D07B6D01337B659F
:103990007B6D9BB29B029AB2BB6D1A802FE03B6D90
:1039A0005B097B653B6D03F01F03002B02D17B6D30
:1039B000013B7B657B6D9BB29B029BB26FEA4343ED
:1039C0006FEA53439AB2BB6D1A8018E0BB685B780C
:1039D000012B14D1FB681B68B3F850309BB21A4618
:1039E0007B6E13447B66BB681B781A017B6E1344A5
:1039F00003F20C433B663B6D9AB23B6E1A80FB6848
:103A00001868BB685969BB685A893B6D9BB204F062
:103A1000DDFCFB681B681A46BB681B789B001344DF
:103A20001B889BB223F4E04323F040033B823B8A94
:103A300083F010033B823B8A83F020033B82FB68C8
:103A40001B681A46BB681B789B001A443B8A43F0EC
:103A50007F4343F47F0343F4004343F080039BB26E
:103A60001380002318468837BD4680BD80B487B0D8
:103A700000AFF8607B600B467B8113463B817B89FE
:103A800003F080039BB2002B0BD07B8903F007036C
:103A90005A1C13469B001344DB00FA6813447B61F5
:103AA00009E07A8913469B001344DB0003F5B473E5
:103AB000FA6813447B613B89002B07D17B690022A4
:103AC0001A737B689AB27B69DA800BE07B6901220A
:103AD0001A737B689AB27B691A817B681B0C9AB255
:103AE0007B695A81002318461C37BD4680BC70474D
:103AF00080B582B000AFFDF737FC7860454B1B689E
:103B0000444A43F00103136008E0FDF72DFC024630
:103B10007B68D31A022B01D9032377E03D4B1B6846
:103B200003F00203002BF0D03A4B1B6823F0F8039C
:103B3000384A43F080031360FDF716FC7860354B7C
:103B400000225A600AE0FDF70FFC02467B68D31A98
:103B500041F28832934201D9032357E02D4B5B6831
:103B600003F00C03002BEED12B4B2C4A1A602C4B8C
:103B70001B681846FDF7B6FB0346002B01D0012356
:103B800044E0FDF7F1FB7860224B1B68214A23F0EB
:103B90008073136008E0FDF7E7FB02467B68D31AE9
:103BA000022B01D9032331E01A4B1B6803F0007389
:103BB000002BF0D1174B00225A60FDF7D5FB78603F
:103BC000144B1B68134A23F41023136008E0FDF71D
:103BD000CBFB02467B68D31A642B01D9032315E083
:103BE0000C4B1B6803F40033002BF0D1094B1B680E
:103BF000084A23F480231360064B5B6A054A43F0AE
:103C000080735362034B00229A60002318460837E2
:103C1000BD4680BD001002400000002000127A0066
:103C20000400002080B586B000AF78607B68002B70
:103C300001D1012372E27B681B6803F00103002BB2
:103C400000F08780924B5B6803F00C03042B0CD0D0
:103C50008F4B5B6803F00C03082B12D18C4B5B6815
:103C600003F48033B3F5803F0BD1894B1B6803F419
:103C70000033002B6CD07B685B68002B68D101237C
:103C80004CE27B685B68B3F5803F06D1804B1B68D4
:103C90007F4A43F4803313602EE07B685B68002B1F
:103CA0000CD17B4B1B687A4A23F480331360784B2A
:103CB0001B68774A23F4802313601DE07B685B68F0
:103CC000B3F5A02F0CD1724B1B68714A43F48023CB
:103CD00013606F4B1B686E4A43F4803313600BE034
:103CE0006B4B1B686A4A23F480331360684B1B6874
:103CF000674A23F4802313607B685B68002B13D032
:103D0000FDF732FB386108E0FDF72EFB02463B6908
:103D1000D31A642B01D9032300E25D4B1B6803F423
:103D20000033002BF0D014E0FDF71EFB386108E0F3
:103D3000FDF71AFB02463B69D31A642B01D9032312
:103D4000ECE1534B1B6803F40033002BF0D100E08F
:103D500000BF7B681B6803F00203002B63D04C4B51
:103D60005B6803F00C03002B0BD0494B5B6803F03E
:103D70000C03082B1CD1464B5B6803F48033002BEB
:103D800016D1434B1B6803F00203002B05D07B6860
:103D90001B69012B01D00123C0E13D4B1B6823F0BF
:103DA000F8027B685B69DB00394913430B603AE03A
:103DB0007B681B69002B20D0364B01221A60FDF76F
:103DC000D3FA386108E0FDF7CFFA02463B69D31A0F
:103DD000022B01D90323A1E12D4B1B6803F0020341
:103DE000002BF0D02A4B1B6823F0F8027B685B693C
:103DF000DB00274913430B6015E0264B00221A60B5
:103E0000FDF7B2FA386108E0FDF7AEFA02463B6909
:103E1000D31A022B01D9032380E11D4B1B6803F049
:103E20000203002BF0D17B681B6803F00803002B12
:103E30003AD07B689B69002B19D0174B01221A607E
:103E4000FDF792FA386108E0FDF78EFA02463B6909
:103E5000D31A022B01D9032360E10D4B5B6A03F0F7
:103E60000203002BF0D0012000F0D8FA1CE00A4B2E
:103E700000221A60FDF778FA38610FE0FDF774FA56
:103E800002463B69D31A022B08D9032346E100BF3F
:103E9000001002400000424280044242924B5B6AA2
:103EA00003F00203002BE9D17B681B6803F00403D5
:103EB000002B00F0A6800023FB758B4BDB6903F021
:103EC0008053002B0DD1884BDB69874A43F0805328
:103ED000D361854BDB6903F08053BB60BB68012372
:103EE000FB75824B1B6803F48073002B18D17F4B4A
:103EF0001B687E4A43F480731360FDF735FA38611E
:103F000008E0FDF731FA02463B69D31A642B01D968
:103F1000032303E1754B1B6803F48073002BF0D07F
:103F20007B68DB68012B06D16F4B1B6A6E4A43F03E
:103F3000010313622DE07B68DB68002B0CD16A4B18
:103F40001B6A694A23F001031362674B1B6A664AC6
:103F500023F0040313621CE07B68DB68052B0CD1A3
:103F6000614B1B6A604A43F0040313625E4B1B6A99
:103F70005D4A43F0010313620BE05B4B1B6A5A4A34
:103F800023F001031362584B1B6A574A23F00403C2
:103F900013627B68DB68002B15D0FDF7E5F938610B
:103FA0000AE0FDF7E1F902463B69D31A41F2883293
:103FB000934201D90323B1E04B4B1B6A03F0020388
:103FC000002BEED014E0FDF7CFF938610AE0FDF7E1
:103FD000CBF902463B69D31A41F28832934201D9A8
:103FE00003239BE0404B1B6A03F00203002BEED13E
:103FF000FB7D012B05D13C4BDB693B4A23F0805311
:10400000D3617B68DB69002B00F08780364B5B68EF
:1040100003F00C03082B61D07B68DB69022B46D1CF
:10402000334B00221A60FDF79FF9386108E0FDF775
:104030009BF902463B69D31A022B01D903236DE099
:10404000294B1B6803F00073002BF0D17B681B6ABF
:10405000B3F5803F08D1244B5B6823F400327B68C2
:104060009B68214913434B601F4B5B6823F4741218
:104070007B68196A7B685B6A0B431B4913434B607F
:104080001B4B01221A60FDF76FF9386108E0FDF75C
:104090006BF902463B69D31A022B01D903233DE099
:1040A000114B1B6803F00073002BF0D035E0104B70
:1040B00000221A60FDF758F9386108E0FDF754F95D
:1040C00002463B69D31A022B01D9032326E0064B93
:1040D0001B6803F00073002BF0D11EE07B68DB69E6
:1040E000012B07D1012319E00010024000700040AD
:1040F000600042420B4B5B68FB60FB6803F480325C
:104100007B681B6A9A4206D1FB6803F470127B68D5
:104110005B6A9A4201D0012300E000231846183759
:10412000BD4680BD0010024080B584B000AF78600D
:1041300039607B68002B01D10123D0E06A4B1B68FA
:1041400003F007033A689A4210D9674B1B6823F0C3
:10415000070265493B6813430B60634B1B6803F020
:1041600007033A689A4201D00123B8E07B681B68D4
:1041700003F00203002B20D07B681B6803F00403CC
:10418000002B05D0594B5B68584A43F4E0635360F9
:104190007B681B6803F00803002B05D0534B5B685A
:1041A000524A43F460535360504B5B6823F0F00273
:1041B0007B689B684D4913434B607B681B6803F029
:1041C0000103002B40D07B685B68012B07D1474B74
:1041D0001B6803F40033002B15D101237FE07B68BB
:1041E0005B68022B07D1414B1B6803F00073002B67
:1041F00009D1012373E03D4B1B6803F00203002B40
:1042000001D101236BE0394B5B6823F003027B682B
:104210005B68364913434B60FDF7A6F8F8600AE087
:10422000FDF7A2F80246FB68D31A41F288329342A6
:1042300001D9032353E02D4B5B6803F00C027B682C
:104240005B689B009A42EBD1274B1B6803F0070386
:104250003A689A4210D2244B1B6823F00702224985
:104260003B6813430B60204B1B6803F007033A685D
:104270009A4201D0012332E07B681B6803F00403FB
:10428000002B08D0194B5B6823F4E0627B68DB6885
:10429000164913434B607B681B6803F00803002B2F
:1042A00009D0124B5B6823F460527B681B69DB000A
:1042B0000E4913434B6000F021F802460B4B5B683C
:1042C0001B0903F00F030A49CB5C22FA03F3094AE6
:1042D0001360094B1B681846FDF704F800231846C5
:1042E0001037BD4680BD00BF0020024000100240D4
:1042F000F0E00008000000200400002090B48AB024
:1043000000AF294B3C1D0FCB84E80F0040F2012386
:104310003B800023FB610023BB6100237B62002301
:104320007B6100233B62214B5B68FB61FB6903F00F
:104330000C03042B02D0082B03D02BE01C4B3B6258
:104340002BE0FB699B0C03F00F0328333B4413F86D
:10435000243C7B61FB6903F48033002B12D0134BA8
:104360005B685B0C03F0010328333B4413F8283CE3
:10437000BB617B690E4A03FB02F2BB69B2FBF3F33C
:104380007B6204E07B690B4A02FB03F37B627B6A7E
:104390003B6202E0064B3B6200BF3B6A184628378F
:1043A000BD4690BC704700BF88E000080010024086
:1043B00000127A0000093D0080B400AF024B1B6878
:1043C0001846BD4680BC70470000002080B500AF95
:1043D000FFF7F2FF0246054B5B681B0A03F0070379
:1043E0000349CB5C22FA03F3184680BD001002405B
:1043F00000E1000880B500AFFFF7DEFF0246054B85
:104400005B68DB0A03F007030349CB5C22FA03F382
:10441000184680BD0010024000E1000880B485B05D
:1044200000AF78600A4B1B680A4AA2FB03235B0AB1
:104430007A6802FB03F3FB6000BFFB685A1EFA6058
:10444000002BF9D100BF00BF1437BD4680BC7047B8
:1044500000000020D34D621080B586B000AF7860B8
:1044600000233B610023FB607B681B6803F00103B2
:10447000002B7DD00023FB754F4BDB6903F080538D
:10448000002B0DD14C4BDB694B4A43F08053D36179
:10449000494BDB6903F08053BB60BB680123FB75AC
:1044A000464B1B6803F48073002B18D1434B1B68E9
:1044B000424A43F480731360FCF756FF386108E00A
:1044C000FCF752FF02463B69D31A642B01D9032340
:1044D0006DE03A4B1B6803F48073002BF0D0364B31
:1044E0001B6A03F44073FB60FB68002B2ED07B68D3
:1044F0005B6803F44073FA689A4227D02E4B1B6A1C
:1045000023F44073FB602E4B01221A602C4B0022D7
:104510001A60294AFB681362FB6803F00103002B51
:1045200014D0FCF721FF38610AE0FCF71DFF0246BA
:104530003B69D31A41F28832934201D9032336E012
:104540001D4B1B6A03F00203002BEED01A4B1B6AB3
:1045500023F440727B685B68174913430B62FB7D51
:10456000012B05D1144BDB69134A23F08053D3612F
:104570007B681B6803F00203002B08D00E4B5B68BE
:1045800023F440427B689B680B4913434B607B6874
:104590001B6803F01003002B08D0074B5B6823F463
:1045A00080027B68DB68044913434B600023184694
:1045B0001837BD4680BD00BF0010024000700040AB
:1045C0004004424280B582B000AF78607B68002B27
:1045D00001D1012376E07B685B6A002B08D17B6800
:1045E0005B68B3F5827F09D07B680022DA6105E061
:1045F0007B6800221A617B6800225A617B68002276
:104600009A627B6893F85130DBB2002B06D17B684D
:10461000002283F850207868FCF798FB7B68022220
:1046200083F851207B681B681A687B681B6822F03E
:1046300040021A607B685B6803F482727B689B6847
:1046400003F404431A437B68DB6803F400631A43F2
:104650007B681B6903F002031A437B685B6903F004
:1046600001031A437B689B6903F400731A437B6858
:10467000DB6903F038031A437B681B6A03F080038D
:1046800042EA03017B689B6A03F400527B681B6863
:104690000A431A607B689B691A0C7B681B6802F0EE
:1046A00004025A607B681B68DA697B681B6822F425
:1046B0000062DA617B6800225A657B68012283F818
:1046C0005120002318460837BD4680BD80B586B00E
:1046D00000AFF860B9601346FB800023FB75FB68F0
:1046E00093F85030012B01D102239BE0FB6801229B
:1046F00083F85020FB6893F85130DBB2012B02D0D5
:104700000223FB7589E0BB68002B02D0FB88002BDD
:1047100002D10123FB7580E0FB68032283F851205E
:10472000FB6800225A65FB68BA681A63FB68FA885E
:104730009A86FB68FA88DA86FB6800229A63FB682F
:1047400000225A64FB6800221A64FB6800229A87E0
:10475000FB680022DA87FB689B68B3F5004F0FD136
:10476000FB681B681A68FB681B6822F040021A602D
:10477000FB681B681A68FB681B6842F480421A6079
:10478000FB689B6C294ADA62FB689B6C284A9A6238
:10479000FB689B6C274A1A63FB689B6C00225A6378
:1047A000FB68986CFB681B6B1946FB681B680C3335
:1047B0001A46FB68DB8E9BB2FCF748FF0346002BD2
:1047C0000CD0FB685B6D43F01002FB685A65012357
:1047D000FB75FB68012283F851201EE0FB681B6813
:1047E0001B6803F04003402B07D0FB681B681A6866
:1047F000FB681B6842F040021A60FB681B685A683D
:10480000FB681B6842F020025A60FB681B685A680C
:10481000FB681B6842F002025A60FB68002283F8C2
:104820005020FB7D18461837BD4680BDCF4A000892
:10483000294A0008EB4A000880B588B000AF7860CC
:104840007B681B685B68FB617B681B689B68BB615E
:10485000BB699B0903F00103002B0FD1BB6903F077
:104860000103002B0AD0FB699B0903F00103002B15
:1048700004D07B681B6C78689847BEE0BB695B0816
:1048800003F00103002B0AD0FB69DB0903F00103ED
:10489000002B04D07B685B6C78689847ADE0BB69FF
:1048A0005B0903F00103002B06D1BB699B0903F0F0
:1048B0000103002B00F0A180FB695B0903F00103F9
:1048C000002B00F09A80BB699B0903F00103002BC9
:1048D00023D07B6893F85130DBB2032B11D07B6877
:1048E0005B6D43F004027B685A6500237B617B6843
:1048F0001B68DB687B617B681B689B687B617B69ED
:104900000BE000233B617B681B68DB683B617B68D5
:104910001B689B683B613B696FE0BB695B0903F007
:104920000103002B14D07B685B6D43F001027B68B0
:104930005A650023FB607B681B689B68FB607B6893
:104940001B681A687B681B6822F040021A60FB68CB
:104950007B685B6D002B4FD07B681B685A687B6857
:104960001B6822F0E0025A607B68012283F8512024
:10497000FB6903F00203002B04D1FB6903F0010380
:10498000002B34D07B681B685A687B681B6822F058
:1049900003025A607B68DB6C002B11D07B68DB6CF8
:1049A000174A5A637B68DB6C1846FCF7AFFE034678
:1049B000002B05D07B685B6D43F040027B685A6535
:1049C0007B689B6C002B16D07B689B6C0C4A5A63EF
:1049D0007B689B6C1846FCF799FE0346002B0AD0B7
:1049E0007B685B6D43F040027B685A6503E0786842
:1049F00000F011F800E000BF00BF2037BD4680BDC9
:104A00002B4B000880B483B000AF786000BF0C3738
:104A1000BD4680BC704780B483B000AF786000BFF3
:104A20000C37BD4680BC704780B586B000AF78605B
:104A30007B685B6A7B61FCF797FC38617B681B686D
:104A40001B6803F02003202B3BD07B691B685A684E
:104A50007B691B6822F020025A607B691B685A68D8
:104A60007B691B6822F002025A603A696421786906
:104A700000F0F8F80346002B05D07B695B6D43F02E
:104A800020027B695A657B699B68002B0AD1002351
:104A9000FB607B691B68DB68FB607B691B689B684C
:104AA000FB60FB687B690022DA867B69012283F860
:104AB00051207B695B6D002B03D07869FFF7ABFF5A
:104AC00002E0786906F0D0FC1837BD4680BD80B59D
:104AD00084B000AF78607B685B6AFB60F868FFF7C2
:104AE00091FF00BF1037BD4680BD80B584B000AFD8
:104AF00078607B685B6AFB60FB681B685A68FB68D0
:104B00001B6822F003025A60FB685B6D43F01002E1
:104B1000FB685A65FB68012283F85120F868FFF7AB
:104B20007AFF00BF1037BD4680BD80B584B000AFAE
:104B300078607B685B6AFB60FB680022DA87FB6851
:104B40000022DA86F868FFF766FF00BF1037BD461F
:104B500080BD000080B588B000AFF860B9603B60F0
:104B60001346FB71FCF700FC0246BB6A9B1A3A68CD
:104B70001344FB61FCF7F8FBB861394B1B685B0120
:104B80001B0DFA6902FB03F37B6154E03B68B3F150
:104B9000FF3F50D0FCF7E8FB0246BB69D31AFA6925
:104BA0009A4202D9FB69002B3DD1FB681B685A6809
:104BB000FB681B6822F0E0025A60FB685B68B3F593
:104BC000827F11D1FB689B68B3F5004F04D0FB686E
:104BD0009B68B3F5806F07D1FB681B681A68FB6898
:104BE0001B6822F040021A60FB689B6AB3F5005F05
:104BF0000FD1FB681B681A68FB681B6822F400521F
:104C00001A60FB681B681A68FB681B6842F4005254
:104C10001A60FB68012283F85120FB68002283F8A8
:104C20005020032317E07B69002B01D10023FB6197
:104C30007B69013B7B61FB681B689A68BB6813401A
:104C4000BA689A420CBF01230023DBB21A46FB79F3
:104C50009A429BD1002318462037BD4680BD00BF35
:104C60000000002080B586B002AFF860B9607A60BD
:104C70007B680093BB6800228021F868FFF76AFF19
:104C80000346002B07D0FB685B6D43F02002FB68F6
:104C90005A65032300E0002318461037BD4680BD47
:104CA00080B582B000AF78607B68002B01D1012312
:104CB00041E07B6893F83D30DBB2002B06D17B6886
:104CC000002283F83C207868FCF75AFA7B680222BD
:104CD00083F83D207B681A687B68043319461046C8
:104CE00000F07AFA7B68012283F846207B68012273
:104CF00083F83E207B68012283F83F207B680122F5
:104D000083F840207B68012283F841207B680122E0
:104D100083F842207B68012283F843207B680122CC
:104D200083F844207B68012283F845207B680122B8
:104D300083F83D20002318460837BD4680BD00009B
:104D400080B485B000AF78607B6893F83D30DBB20B
:104D5000012B01D001233AE07B68022283F83D2039
:104D60007B681B68DA687B681B6842F00102DA60C6
:104D70007B681B68184A93420ED07B681B68B3F1AE
:104D8000804F09D07B681B68144A934204D07B682B
:104D90001B68134A934211D17B681B689B6803F020
:104DA0000703FB60FB68062B10D07B681B681A6842
:104DB0007B681B6842F001021A6007E07B681B6891
:104DC0001A687B681B6842F001021A6000231846CB
:104DD0001437BD4680BC7047002C014000040040E1
:104DE0000008004080B582B000AF78607B681B6827
:104DF0001B6903F00203022B22D17B681B68DB686E
:104E000003F00203022B1BD17B681B686FF00202C8
:104E10001A617B6801221A777B681B689B6903F023
:104E20000303002B03D0786800F0BAF905E0786836
:104E300000F0ADF9786800F0BCF97B6800221A77C1
:104E40007B681B681B6903F00403042B22D17B6879
:104E50001B68DB6803F00403042B1BD17B681B6811
:104E60006FF004021A617B6802221A777B681B6864
:104E70009B6903F44073002B03D0786800F090F92D
:104E800005E0786800F083F9786800F092F97B68B3
:104E900000221A777B681B681B6903F00803082B44
:104EA00022D17B681B68DB6803F00803082B1BD149
:104EB0007B681B686FF008021A617B6804221A770E
:104EC0007B681B68DB6903F00303002B03D0786861
:104ED00000F066F905E0786800F059F9786800F0AC
:104EE00068F97B6800221A777B681B681B6903F0EE
:104EF0001003102B22D17B681B68DB6803F01003C2
:104F0000102B1BD17B681B686FF010021A617B6845
:104F100008221A777B681B68DB6903F44073002B57
:104F200003D0786800F03CF905E0786800F02FF9CC
:104F3000786800F03EF97B6800221A777B681B686E
:104F40001B6903F00103012B0ED17B681B68DB6832
:104F500003F00103012B07D17B681B686FF001028E
:104F60001A61786800F00AF97B681B681B6903F016
:104F70008003802B0ED17B681B68DB6803F0800305
:104F8000802B07D17B681B686FF080021A617868FC
:104F900000F081FA7B681B681B6903F04003402B1B
:104FA0000ED17B681B68DB6803F04003402B07D100
:104FB0007B681B686FF040021A61786800F002F9A4
:104FC0007B681B681B6903F02003202B0ED17B68D4
:104FD0001B68DB6803F02003202B07D17B681B686C
:104FE0006FF020021A61786800F04CFA00BF0837B1
:104FF000BD4680BD80B584B000AF786039607B6805
:1050000093F83C30012B01D10223B3E07B680122ED
:1050100083F83C207B68022283F83D207B681B6874
:105020009B68FB60FB6823F07703FB60FB6823F45D
:105030007F43FB607B681B68FA689A603B681B686B
:10504000B3F5005F3ED0B3F5005F00F28780B3F5A3
:10505000805F00F08580B3F5805F7FD8702B1AD019
:10506000702B7BD8602B50D0602B77D8502B3CD046
:10507000502B73D8402B58D0402B6FD8302B64D096
:10508000302B6BD8202B60D0202B67D8002B5CD026
:10509000102B5AD062E07B6818683B6899683B68BF
:1050A0005A683B68DB6800F070F97B681B689B6896
:1050B000FB60FB6843F07703FB607B681B68FA6862
:1050C0009A604EE07B6818683B6899683B685A684C
:1050D0003B68DB6800F059F97B681B689A687B685D
:1050E0001B6842F480429A603BE07B6818683B682A
:1050F00059683B68DB681A4600F0D0F87B681B688B
:105100005021184600F027F92BE07B6818683B68AF
:1051100059683B68DB681A4600F0EEF87B681B684C
:105120006021184600F017F91BE07B6818683B689F
:1051300059683B68DB681A4600F0B0F87B681B686A
:105140004021184600F007F90BE07B681A683B68BD
:105150001B681946104600F0FEF802E000BF00E0B0
:1051600000BF7B68012283F83D207B68002283F822
:105170003C20002318461037BD4680BD80B483B064
:1051800000AF786000BF0C37BD4680BC704780B46C
:1051900083B000AF786000BF0C37BD4680BC70475D
:1051A00080B483B000AF786000BF0C37BD4680BCD0
:1051B000704780B483B000AF786000BF0C37BD4645
:1051C00080BC704780B483B000AF786000BF0C37FC
:1051D000BD4680BC7047000080B485B000AF7860E9
:1051E00039607B681B68FB607B68294A93420BD05F
:1051F0007B68B3F1804F07D07B68264A934203D087
:105200007B68254A934208D1FB6823F07003FB605A
:105210003B685B68FA681343FB607B681C4A9342F7
:105220000BD07B68B3F1804F07D07B68194A93425B
:1052300003D07B68184A934208D1FB6823F440737B
:10524000FB603B68DB68FA681343FB60FB6823F094
:1052500080023B685B691343FB607B68FA681A60F5
:105260003B689A687B68DA623B681A687B689A6276
:105270007B68074A934203D13B681A697B681A63CB
:105280007B6801225A6100BF1437BD4680BC70475D
:10529000002C0140000400400008004080B487B0AA
:1052A00000AFF860B9607A60FB681B6A7B61FB68DD
:1052B0001B6A23F00102FB681A62FB689B693B6171
:1052C0003B6923F0F0033B617B681B013A691343A0
:1052D0003B617B6923F00A037B617A69BB681343F6
:1052E0007B61FB683A699A61FB687A691A6200BF60
:1052F0001C37BD4680BC704780B487B000AFF860F3
:10530000B9607A60FB681B6A23F01002FB681A62BE
:10531000FB689B697B61FB681B6A3B617B6923F4CB
:1053200070437B617B681B037A6913437B613B6934
:1053300023F0A0033B61BB681B013A6913433B6147
:10534000FB687A699A61FB683A691A6200BF1C3788
:10535000BD4680BC704780B485B000AF78603960CE
:105360007B689B68FB60FB6823F07003FB603A6816
:10537000FB68134343F00703FB607B68FA689A609D
:1053800000BF1437BD4680BC704780B487B000AF03
:10539000F860B9607A603B60FB689B687B617B6901
:1053A00023F47F437B613B681A027B681A43BB6826
:1053B00013437A6913437B61FB687A699A6000BF83
:1053C0001C37BD4680BC704780B485B000AF7860A4
:1053D00039607B6893F83C30012B01D1022346E011
:1053E0007B68012283F83C207B68022283F83D2001
:1053F0007B681B685B68FB607B681B689B68BB60A5
:10540000FB6823F07003FB603B681B68FA6813437A
:10541000FB607B681B68FA685A607B681B68164AE9
:1054200093420ED07B681B68B3F1804F09D07B6834
:105430001B68124A934204D07B681B68104A93424F
:105440000CD1BB6823F08003BB603B685B68BA6823
:105450001343BB607B681B68BA689A607B68012253
:1054600083F83D207B68002283F83C200023184607
:105470001437BD4680BC7047002C0140000400403A
:105480000008004080B483B000AF786000BF0C37E4
:10549000BD4680BC704780B483B000AF786000BF69
:1054A0000C37BD4680BC704780B582B000AF7860D5
:1054B0007B68002B01D101233FE07B6893F83D30EE
:1054C000DBB2002B06D17B68002283F83C20786891
:1054D000FBF7A6FE7B68242283F83D207B681B68CF
:1054E000DA687B681B6822F40052DA60786800F0A2
:1054F000A7F97B681B681A697B681B6822F49042D5
:105500001A617B681B685A697B681B6822F02A0253
:105510005A617B681B68DA687B681B6842F400523A
:10552000DA607B6800221A647B68202283F83D20C1
:105530007B68202283F83E20002318460837BD46AA
:1055400080BD80B58AB002AFF860B9603B60134699
:10555000FB8000237B61FB6893F83D30DBB2202B9E
:105560007CD1BB68002B02D0FB88002B01D101232A
:1055700075E0FB6893F83C30012B01D102236EE00B
:10558000FB68012283F83C20FB6800221A64FB6858
:10559000212283F83D20FBF7E7FE7861FB68FA885B
:1055A0009A84FB68FA88DA84FB689B68B3F5805FAD
:1055B00008D1FB681B69002B04D10023FB61BB6889
:1055C000BB6103E0BB68FB610023BB61FB68002299
:1055D00083F83C202AE03B6800937B69002280210D
:1055E000F86800F0E2F80346002B01D0032336E010
:1055F000FB69002B0BD1BB691B881A46FB681B6833
:10560000C2F308025A60BB690233BB6107E0FB6961
:105610001A78FB681B685A60FB690133FB61FB6801
:10562000DB8C9BB2013B9AB2FB68DA84FB68DB8CB3
:105630009BB2002BCFD13B6800937B6900224021B5
:10564000F86800F0B2F80346002B01D0032306E00F
:10565000FB68202283F83D20002300E00223184647
:105660002037BD4680BD80B58AB002AFF860B96012
:105670003B601346FB8000237B61FB6893F83E3060
:10568000DBB2202B40F08C80BB68002B02D0FB8863
:10569000002B01D1012384E0FB6893F83C30012BFF
:1056A00001D102237DE0FB68012283F83C20FB68E6
:1056B00000221A64FB68222283F83E20FB68002245
:1056C0001A63FBF751FE7861FB68FA889A85FB68DC
:1056D000FA88DA85FB689B68B3F5805F08D1FB68C0
:1056E0001B69002B04D10023FB61BB68BB6103E095
:1056F000BB68FB610023BB61FB68002283F83C2090
:1057000043E03B6800937B6900222021F86800F0A9
:105710004CF80346002B01D0032342E0FB69002B29
:105720000CD1FB681B685B689BB2C3F308039AB299
:10573000BB691A80BB690233BB611FE0FB689B68D1
:10574000B3F5805F07D0FB689B68002B0AD1FB682C
:105750001B69002B06D1FB681B685B68DAB2FB692A
:105760001A7008E0FB681B685B68DBB203F07F031C
:10577000DAB2FB691A70FB690133FB61FB68DB8DF0
:105780009BB2013B9AB2FB68DA85FB68DB8D9BB26A
:10579000002BB6D1FB68202283F83E20002300E0D6
:1057A000022318462037BD4680BD80B584B000AFC7
:1057B000F860B9603B601346FB712CE0BB69B3F144
:1057C000FF3F28D0BB69002B07D0FBF7CDFD024679
:1057D0003B68D31ABA699A421DD2FB681B68DA6823
:1057E000FB681B6822F4D072DA60FB681B685A6998
:1057F000FB681B6822F001025A61FB68202283F8D3
:105800003D20FB68202283F83E20FB68002283F8BD
:105810003C2003230FE0FB681B681A68BB68134039
:10582000BA689A420CBF01230023DBB21A46FB7907
:105830009A42C3D0002318461037BD4680BD0000F1
:1058400080B584B000AF78607B681B681B6923F467
:1058500040517B68DA687B681B680A431A617B6881
:105860009A687B681B691A437B685B691343BB605A
:105870007B681B68DB6823F4B05323F00C037A6861
:105880001268B9680B43D3607B681B685B6923F4BB
:1058900040717B689A697B681B680A435A617B6820
:1058A0001B682C4A934203D1FEF7A4FDF86002E086
:1058B000FEF78CFDF860FA6813469B0013449A00CB
:1058C0001A447B685B689B00B2FBF3F3224AA2FB9D
:1058D00003235B091901FA6813469B0013449A00DD
:1058E0001A447B685B689B00B2FBF3F21A4BA3FB84
:1058F00002035B09642000FB03F3D31A1B0132335C
:10590000154AA2FB03235B0903F0F0031944FA686C
:1059100013469B0013449A001A447B685B689B0003
:10592000B2FBF3F20C4BA3FB02035B09642000FB08
:1059300003F3D31A1B013233074AA2FB03235B098B
:1059400003F00F027B681B680A449A6000BF10379F
:10595000BD4680BD003801401F85EB5184B080B446
:1059600083B000AF786007F1140080E80E000023D8
:1059700018460C37BD4680BC04B0704780B485B073
:1059800000AF78607B680022A3F844204FF43F43C7
:10599000FB60FB689AB27B68A3F84020002318469E
:1059A0001437BD4680BC704780B485B000AF7860C6
:1059B0004FF43F43FB607B68B3F840309AB2FB681A
:1059C0009BB2DB439BB213409AB27B68A3F84020A2
:1059D000002318461437BD4680BC704780B483B09E
:1059E00000AF78600B46FB70002318460C37BD46AD
:1059F00080BC704784B080B483B000AF786007F19A
:105A0000140080E80E007B680122A3F840207B6828
:105A10000022A3F840207B680022A3F844207B6882
:105A20000022A3F85020002318460C37BD4680BC46
:105A300004B0704780B49BB000AF78603960002339
:105A400087F867307A683B681B789B0013441B8893
:105A50009BB223F4EC4323F07003A7F864303B6857
:105A6000DB78032B1FD801A252F823F07D5A0008DF
:105A7000995A0008AF5A00088B5A0008B7F86430EA
:105A800043F40073A7F8643012E0B7F8643043F4CD
:105A9000C063A7F864300BE0B7F8643043F4806368
:105AA000A7F8643004E0012387F8673000E000BF06
:105AB0007A683B681B789B001A44B7F8643043F05F
:105AC0007F4343F47F0343F4004343F080039BB2DE
:105AD00013807A683B681B789B0013441B889BB239
